{
  "_format": "hh-sol-artifact-1",
  "contractName": "NFTMarketplace",
  "sourceName": "contracts/NFTMarketplace.sol",
  "abi": [
    {
      "inputs": [],
      "stateMutability": "nonpayable",
      "type": "constructor"
    },
    {
      "anonymous": false,
      "inputs": [
        {
          "indexed": true,
          "internalType": "address",
          "name": "owner",
          "type": "address"
        },
        {
          "indexed": true,
          "internalType": "address",
          "name": "approved",
          "type": "address"
        },
        {
          "indexed": true,
          "internalType": "uint256",
          "name": "tokenId",
          "type": "uint256"
        }
      ],
      "name": "Approval",
      "type": "event"
    },
    {
      "anonymous": false,
      "inputs": [
        {
          "indexed": true,
          "internalType": "address",
          "name": "owner",
          "type": "address"
        },
        {
          "indexed": true,
          "internalType": "address",
          "name": "operator",
          "type": "address"
        },
        {
          "indexed": false,
          "internalType": "bool",
          "name": "approved",
          "type": "bool"
        }
      ],
      "name": "ApprovalForAll",
      "type": "event"
    },
    {
      "anonymous": false,
      "inputs": [
        {
          "indexed": true,
          "internalType": "uint256",
          "name": "tokenId",
          "type": "uint256"
        },
        {
          "indexed": false,
          "internalType": "address",
          "name": "seller",
          "type": "address"
        },
        {
          "indexed": false,
          "internalType": "address",
          "name": "owner",
          "type": "address"
        },
        {
          "indexed": false,
          "internalType": "uint256",
          "name": "price",
          "type": "uint256"
        },
        {
          "indexed": false,
          "internalType": "bool",
          "name": "sold",
          "type": "bool"
        }
      ],
      "name": "MarketItemCreated",
      "type": "event"
    },
    {
      "anonymous": false,
      "inputs": [
        {
          "indexed": true,
          "internalType": "uint256",
          "name": "tokenId",
          "type": "uint256"
        },
        {
          "indexed": false,
          "internalType": "address",
          "name": "seller",
          "type": "address"
        },
        {
          "indexed": false,
          "internalType": "address",
          "name": "owner",
          "type": "address"
        },
        {
          "indexed": false,
          "internalType": "uint256",
          "name": "price",
          "type": "uint256"
        },
        {
          "indexed": false,
          "internalType": "bool",
          "name": "sold",
          "type": "bool"
        }
      ],
      "name": "PersonalItemCreated",
      "type": "event"
    },
    {
      "anonymous": false,
      "inputs": [
        {
          "indexed": true,
          "internalType": "address",
          "name": "from",
          "type": "address"
        },
        {
          "indexed": true,
          "internalType": "address",
          "name": "to",
          "type": "address"
        },
        {
          "indexed": true,
          "internalType": "uint256",
          "name": "tokenId",
          "type": "uint256"
        }
      ],
      "name": "Transfer",
      "type": "event"
    },
    {
      "anonymous": false,
      "inputs": [
        {
          "indexed": false,
          "internalType": "address",
          "name": "sender",
          "type": "address"
        },
        {
          "indexed": false,
          "internalType": "address",
          "name": "to",
          "type": "address"
        },
        {
          "indexed": false,
          "internalType": "uint256",
          "name": "amount",
          "type": "uint256"
        }
      ],
      "name": "TransferSent",
      "type": "event"
    },
    {
      "inputs": [
        {
          "internalType": "address",
          "name": "to",
          "type": "address"
        },
        {
          "internalType": "uint256",
          "name": "tokenId",
          "type": "uint256"
        }
      ],
      "name": "approve",
      "outputs": [],
      "stateMutability": "nonpayable",
      "type": "function"
    },
    {
      "inputs": [
        {
          "internalType": "address",
          "name": "_staker",
          "type": "address"
        }
      ],
      "name": "availableRewards",
      "outputs": [
        {
          "internalType": "uint256",
          "name": "",
          "type": "uint256"
        }
      ],
      "stateMutability": "view",
      "type": "function"
    },
    {
      "inputs": [
        {
          "internalType": "address",
          "name": "owner",
          "type": "address"
        }
      ],
      "name": "balanceOf",
      "outputs": [
        {
          "internalType": "uint256",
          "name": "",
          "type": "uint256"
        }
      ],
      "stateMutability": "view",
      "type": "function"
    },
    {
      "inputs": [],
      "name": "claimRewards",
      "outputs": [],
      "stateMutability": "nonpayable",
      "type": "function"
    },
    {
      "inputs": [
        {
          "internalType": "uint256",
          "name": "tokenId",
          "type": "uint256"
        }
      ],
      "name": "createMarketSale",
      "outputs": [],
      "stateMutability": "payable",
      "type": "function"
    },
    {
      "inputs": [
        {
          "internalType": "string",
          "name": "tokenURI",
          "type": "string"
        },
        {
          "internalType": "uint256",
          "name": "price",
          "type": "uint256"
        }
      ],
      "name": "createPersonalToken",
      "outputs": [
        {
          "internalType": "uint256",
          "name": "",
          "type": "uint256"
        }
      ],
      "stateMutability": "payable",
      "type": "function"
    },
    {
      "inputs": [
        {
          "internalType": "string",
          "name": "tokenURI",
          "type": "string"
        },
        {
          "internalType": "uint256",
          "name": "price",
          "type": "uint256"
        }
      ],
      "name": "createToken",
      "outputs": [
        {
          "internalType": "uint256",
          "name": "",
          "type": "uint256"
        }
      ],
      "stateMutability": "payable",
      "type": "function"
    },
    {
      "inputs": [],
      "name": "fetchItemsListed",
      "outputs": [
        {
          "components": [
            {
              "internalType": "uint256",
              "name": "tokenId",
              "type": "uint256"
            },
            {
              "internalType": "address payable",
              "name": "seller",
              "type": "address"
            },
            {
              "internalType": "address payable",
              "name": "owner",
              "type": "address"
            },
            {
              "internalType": "uint256",
              "name": "price",
              "type": "uint256"
            },
            {
              "internalType": "bool",
              "name": "sold",
              "type": "bool"
            }
          ],
          "internalType": "struct NFTMarketplace.MarketItem[]",
          "name": "",
          "type": "tuple[]"
        }
      ],
      "stateMutability": "view",
      "type": "function"
    },
    {
      "inputs": [],
      "name": "fetchMarketItems",
      "outputs": [
        {
          "components": [
            {
              "internalType": "uint256",
              "name": "tokenId",
              "type": "uint256"
            },
            {
              "internalType": "address payable",
              "name": "seller",
              "type": "address"
            },
            {
              "internalType": "address payable",
              "name": "owner",
              "type": "address"
            },
            {
              "internalType": "uint256",
              "name": "price",
              "type": "uint256"
            },
            {
              "internalType": "bool",
              "name": "sold",
              "type": "bool"
            }
          ],
          "internalType": "struct NFTMarketplace.MarketItem[]",
          "name": "",
          "type": "tuple[]"
        }
      ],
      "stateMutability": "view",
      "type": "function"
    },
    {
      "inputs": [],
      "name": "fetchMyNFTs",
      "outputs": [
        {
          "components": [
            {
              "internalType": "uint256",
              "name": "tokenId",
              "type": "uint256"
            },
            {
              "internalType": "address payable",
              "name": "seller",
              "type": "address"
            },
            {
              "internalType": "address payable",
              "name": "owner",
              "type": "address"
            },
            {
              "internalType": "uint256",
              "name": "price",
              "type": "uint256"
            },
            {
              "internalType": "bool",
              "name": "sold",
              "type": "bool"
            }
          ],
          "internalType": "struct NFTMarketplace.MarketItem[]",
          "name": "",
          "type": "tuple[]"
        }
      ],
      "stateMutability": "view",
      "type": "function"
    },
    {
      "inputs": [
        {
          "internalType": "uint256",
          "name": "tokenId",
          "type": "uint256"
        }
      ],
      "name": "getApproved",
      "outputs": [
        {
          "internalType": "address",
          "name": "",
          "type": "address"
        }
      ],
      "stateMutability": "view",
      "type": "function"
    },
    {
      "inputs": [],
      "name": "getCurrentTokenId",
      "outputs": [
        {
          "internalType": "uint256",
          "name": "",
          "type": "uint256"
        }
      ],
      "stateMutability": "view",
      "type": "function"
    },
    {
      "inputs": [],
      "name": "getListingPrice",
      "outputs": [
        {
          "internalType": "uint256",
          "name": "",
          "type": "uint256"
        }
      ],
      "stateMutability": "view",
      "type": "function"
    },
    {
      "inputs": [
        {
          "internalType": "address",
          "name": "_user",
          "type": "address"
        }
      ],
      "name": "getStakedTokens",
      "outputs": [
        {
          "components": [
            {
              "internalType": "address",
              "name": "staker",
              "type": "address"
            },
            {
              "internalType": "uint256",
              "name": "tokenId",
              "type": "uint256"
            }
          ],
          "internalType": "struct NFTMarketplace.StakedToken[]",
          "name": "",
          "type": "tuple[]"
        }
      ],
      "stateMutability": "view",
      "type": "function"
    },
    {
      "inputs": [
        {
          "internalType": "address",
          "name": "owner",
          "type": "address"
        },
        {
          "internalType": "address",
          "name": "operator",
          "type": "address"
        }
      ],
      "name": "isApprovedForAll",
      "outputs": [
        {
          "internalType": "bool",
          "name": "",
          "type": "bool"
        }
      ],
      "stateMutability": "view",
      "type": "function"
    },
    {
      "inputs": [],
      "name": "name",
      "outputs": [
        {
          "internalType": "string",
          "name": "",
          "type": "string"
        }
      ],
      "stateMutability": "view",
      "type": "function"
    },
    {
      "inputs": [
        {
          "internalType": "uint256",
          "name": "tokenId",
          "type": "uint256"
        }
      ],
      "name": "ownerOf",
      "outputs": [
        {
          "internalType": "address",
          "name": "",
          "type": "address"
        }
      ],
      "stateMutability": "view",
      "type": "function"
    },
    {
      "inputs": [
        {
          "internalType": "uint256",
          "name": "tokenId",
          "type": "uint256"
        },
        {
          "internalType": "uint256",
          "name": "price",
          "type": "uint256"
        }
      ],
      "name": "resellToken",
      "outputs": [],
      "stateMutability": "payable",
      "type": "function"
    },
    {
      "inputs": [],
      "name": "rewardsToken",
      "outputs": [
        {
          "internalType": "contract IERC20",
          "name": "",
          "type": "address"
        }
      ],
      "stateMutability": "view",
      "type": "function"
    },
    {
      "inputs": [
        {
          "internalType": "address",
          "name": "from",
          "type": "address"
        },
        {
          "internalType": "address",
          "name": "to",
          "type": "address"
        },
        {
          "internalType": "uint256",
          "name": "tokenId",
          "type": "uint256"
        }
      ],
      "name": "safeTransferFrom",
      "outputs": [],
      "stateMutability": "nonpayable",
      "type": "function"
    },
    {
      "inputs": [
        {
          "internalType": "address",
          "name": "from",
          "type": "address"
        },
        {
          "internalType": "address",
          "name": "to",
          "type": "address"
        },
        {
          "internalType": "uint256",
          "name": "tokenId",
          "type": "uint256"
        },
        {
          "internalType": "bytes",
          "name": "_data",
          "type": "bytes"
        }
      ],
      "name": "safeTransferFrom",
      "outputs": [],
      "stateMutability": "nonpayable",
      "type": "function"
    },
    {
      "inputs": [
        {
          "internalType": "address",
          "name": "operator",
          "type": "address"
        },
        {
          "internalType": "bool",
          "name": "approved",
          "type": "bool"
        }
      ],
      "name": "setApprovalForAll",
      "outputs": [],
      "stateMutability": "nonpayable",
      "type": "function"
    },
    {
      "inputs": [
        {
          "internalType": "uint256",
          "name": "_tokenId",
          "type": "uint256"
        }
      ],
      "name": "stake",
      "outputs": [],
      "stateMutability": "nonpayable",
      "type": "function"
    },
    {
      "inputs": [
        {
          "internalType": "uint256",
          "name": "",
          "type": "uint256"
        }
      ],
      "name": "stakerAddress",
      "outputs": [
        {
          "internalType": "address",
          "name": "",
          "type": "address"
        }
      ],
      "stateMutability": "view",
      "type": "function"
    },
    {
      "inputs": [
        {
          "internalType": "address",
          "name": "",
          "type": "address"
        }
      ],
      "name": "stakers",
      "outputs": [
        {
          "internalType": "uint256",
          "name": "amountStaked",
          "type": "uint256"
        },
        {
          "internalType": "uint256",
          "name": "timeOfLastUpdate",
          "type": "uint256"
        },
        {
          "internalType": "uint256",
          "name": "unclaimedRewards",
          "type": "uint256"
        }
      ],
      "stateMutability": "view",
      "type": "function"
    },
    {
      "inputs": [
        {
          "internalType": "bytes4",
          "name": "interfaceId",
          "type": "bytes4"
        }
      ],
      "name": "supportsInterface",
      "outputs": [
        {
          "internalType": "bool",
          "name": "",
          "type": "bool"
        }
      ],
      "stateMutability": "view",
      "type": "function"
    },
    {
      "inputs": [],
      "name": "symbol",
      "outputs": [
        {
          "internalType": "string",
          "name": "",
          "type": "string"
        }
      ],
      "stateMutability": "view",
      "type": "function"
    },
    {
      "inputs": [
        {
          "internalType": "uint256",
          "name": "tokenId",
          "type": "uint256"
        }
      ],
      "name": "tokenURI",
      "outputs": [
        {
          "internalType": "string",
          "name": "",
          "type": "string"
        }
      ],
      "stateMutability": "view",
      "type": "function"
    },
    {
      "inputs": [
        {
          "internalType": "address",
          "name": "from",
          "type": "address"
        },
        {
          "internalType": "address",
          "name": "to",
          "type": "address"
        },
        {
          "internalType": "uint256",
          "name": "tokenId",
          "type": "uint256"
        }
      ],
      "name": "transferFrom",
      "outputs": [],
      "stateMutability": "nonpayable",
      "type": "function"
    },
    {
      "inputs": [
        {
          "internalType": "uint256",
          "name": "_listingPrice",
          "type": "uint256"
        }
      ],
      "name": "updateListingPrice",
      "outputs": [],
      "stateMutability": "payable",
      "type": "function"
    },
    {
      "inputs": [
        {
          "internalType": "uint256",
          "name": "_tokenId",
          "type": "uint256"
        }
      ],
      "name": "withdraw",
      "outputs": [],
      "stateMutability": "nonpayable",
      "type": "function"
    }
  ],
  "bytecode": "0x60a06040526658d15e17628000600a557f8f7116ca03aeb48547d0e2edd3faa73bfb2325380000000000000000000000006080526103e8600d553480156200004657600080fd5b50604080518082018252601081526f4d657461766572736520546f6b656e7360801b6020808301918252835180850190945260048452631351551560e21b9084015281519192916200009b91600091620000d1565b508051620000b1906001906020840190620000d1565b5050600160075550600b80546001600160a01b03191633179055620001b4565b828054620000df9062000177565b90600052602060002090601f0160209004810192826200010357600085556200014e565b82601f106200011e57805160ff19168380011785556200014e565b828001600101855582156200014e579182015b828111156200014e57825182559160200191906001019062000131565b506200015c92915062000160565b5090565b5b808211156200015c576000815560010162000161565b600181811c908216806200018c57607f821691505b60208210811415620001ae57634e487b7160e01b600052602260045260246000fd5b50919050565b60805160601c613527620001da6000396000818161057001526110e001526135276000f3fe6080604052600436106101d85760003560e01c806370a0823111610102578063ae677aa311610095578063d1af0c7d11610064578063d1af0c7d1461055e578063e219fc7514610592578063e985e9c5146105a5578063f854a27f146105ee57600080fd5b8063ae677aa3146104f8578063b88d4fde1461050b578063be9af5361461052b578063c87b56dd1461053e57600080fd5b806395d89b41116100d157806395d89b4114610490578063a22cb465146104a5578063a694fc3a146104c5578063ad141f96146104e557600080fd5b806370a08231146103d057806372b3b620146103f05780639168ae7214610403578063940670451461045a57600080fd5b806323b872dd1161017a57806345f8fa801161014957806345f8fa8014610359578063561892361461036e5780636352211e1461038357806363c28db1146103a357600080fd5b806323b872dd146102e45780632e1a7d4d14610304578063372500ab1461032457806342842e0e1461033957600080fd5b8063095ea7b3116101b6578063095ea7b31461026c5780630f08efe01461028e57806312e85585146102b0578063202e3740146102cf57600080fd5b806301ffc9a7146101dd57806306fdde0314610212578063081812fc14610234575b600080fd5b3480156101e957600080fd5b506101fd6101f836600461312c565b61060e565b60405190151581526020015b60405180910390f35b34801561021e57600080fd5b506102276106ab565b6040516102099190613369565b34801561024057600080fd5b5061025461024f3660046131ba565b61073d565b6040516001600160a01b039091168152602001610209565b34801561027857600080fd5b5061028c6102873660046130e7565b6107d7565b005b34801561029a57600080fd5b506102a3610909565b60405161020991906132a2565b3480156102bc57600080fd5b50600a545b604051908152602001610209565b3480156102db57600080fd5b506102a3610abd565b3480156102f057600080fd5b5061028c6102ff366004612ffd565b610caf565b34801561031057600080fd5b5061028c61031f3660046131ba565b610d36565b34801561033057600080fd5b5061028c611047565b34801561034557600080fd5b5061028c610354366004612ffd565b611109565b34801561036557600080fd5b506102a3611124565b34801561037a57600080fd5b506102c1611316565b34801561038f57600080fd5b5061025461039e3660046131ba565b611326565b3480156103af57600080fd5b506103c36103be366004612fb1565b6113b1565b604051610209919061331e565b3480156103dc57600080fd5b506102c16103eb366004612fb1565b6115e8565b6102c16103fe366004613164565b611682565b34801561040f57600080fd5b5061043f61041e366004612fb1565b600e6020526000908152604090208054600282015460039092015490919083565b60408051938452602084019290925290820152606001610209565b34801561046657600080fd5b506102546104753660046131ba565b600f602052600090815260409020546001600160a01b031681565b34801561049c57600080fd5b506102276116c4565b3480156104b157600080fd5b5061028c6104c03660046130b1565b6116d3565b3480156104d157600080fd5b5061028c6104e03660046131ba565b6116e2565b6102c16104f3366004613164565b6118c3565b61028c6105063660046131ba565b6118fe565b34801561051757600080fd5b5061028c610526366004613038565b611983565b61028c6105393660046131ba565b611a11565b34801561054a57600080fd5b506102276105593660046131ba565b611b79565b34801561056a57600080fd5b506102547f000000000000000000000000000000000000000000000000000000000000000081565b61028c6105a03660046131ea565b611d0c565b3480156105b157600080fd5b506101fd6105c0366004612fcb565b6001600160a01b03918216600090815260056020908152604080832093909416825291909152205460ff1690565b3480156105fa57600080fd5b506102c1610609366004612fb1565b611e53565b60006001600160e01b031982167f80ac58cd00000000000000000000000000000000000000000000000000000000148061067157506001600160e01b031982167f5b5e139f00000000000000000000000000000000000000000000000000000000145b806106a557507f01ffc9a7000000000000000000000000000000000000000000000000000000006001600160e01b03198316145b92915050565b6060600080546106ba90613421565b80601f01602080910402602001604051908101604052809291908181526020018280546106e690613421565b80156107335780601f1061070857610100808354040283529160200191610733565b820191906000526020600020905b81548152906001019060200180831161071657829003601f168201915b5050505050905090565b6000818152600260205260408120546001600160a01b03166107bb5760405162461bcd60e51b815260206004820152602c60248201527f4552433732313a20617070726f76656420717565727920666f72206e6f6e657860448201526b34b9ba32b73a103a37b5b2b760a11b60648201526084015b60405180910390fd5b506000908152600460205260409020546001600160a01b031690565b60006107e282611326565b9050806001600160a01b0316836001600160a01b0316141561086c5760405162461bcd60e51b815260206004820152602160248201527f4552433732313a20617070726f76616c20746f2063757272656e74206f776e6560448201527f720000000000000000000000000000000000000000000000000000000000000060648201526084016107b2565b336001600160a01b0382161480610888575061088881336105c0565b6108fa5760405162461bcd60e51b815260206004820152603860248201527f4552433732313a20617070726f76652063616c6c6572206973206e6f74206f7760448201527f6e6572206e6f7220617070726f76656420666f7220616c6c000000000000000060648201526084016107b2565b6109048383611e84565b505050565b6060600061091660085490565b9050600061092360095490565b60085461093091906133c7565b90506000808267ffffffffffffffff81111561095c57634e487b7160e01b600052604160045260246000fd5b6040519080825280602002602001820160405280156109b557816020015b6040805160a08101825260008082526020808301829052928201819052606082018190526080820152825260001990920191018161097a5790505b50905060005b84811015610ab45730600c60006109d384600161337c565b81526020810191909152604001600020600201546001600160a01b03161415610aa2576000610a0382600161337c565b6000818152600c6020908152604091829020825160a0810184528154815260018201546001600160a01b039081169382019390935260028201549092169282019290925260038201546060820152600482015460ff161515608082015285519293509091859087908110610a8757634e487b7160e01b600052603260045260246000fd5b6020908102919091010152610a9d60018661337c565b945050505b80610aac8161345c565b9150506109bb565b50949350505050565b60606000610aca60085490565b905060008060005b83811015610b2d5733600c6000610aea84600161337c565b81526020810191909152604001600020600201546001600160a01b03161415610b1b57610b1860018461337c565b92505b80610b258161345c565b915050610ad2565b5060008267ffffffffffffffff811115610b5757634e487b7160e01b600052604160045260246000fd5b604051908082528060200260200182016040528015610bb057816020015b6040805160a081018252600080825260208083018290529282018190526060820181905260808201528252600019909201910181610b755790505b50905060005b84811015610ab45733600c6000610bce84600161337c565b81526020810191909152604001600020600201546001600160a01b03161415610c9d576000610bfe82600161337c565b6000818152600c6020908152604091829020825160a0810184528154815260018201546001600160a01b039081169382019390935260028201549092169282019290925260038201546060820152600482015460ff161515608082015285519293509091859087908110610c8257634e487b7160e01b600052603260045260246000fd5b6020908102919091010152610c9860018661337c565b945050505b80610ca78161345c565b915050610bb6565b610cb93382611ef2565b610d2b5760405162461bcd60e51b815260206004820152603160248201527f4552433732313a207472616e736665722063616c6c6572206973206e6f74206f60448201527f776e6572206e6f7220617070726f76656400000000000000000000000000000060648201526084016107b2565b610904838383611fe5565b60026007541415610d895760405162461bcd60e51b815260206004820152601f60248201527f5265656e7472616e637947756172643a207265656e7472616e742063616c6c0060448201526064016107b2565b6002600755336000908152600e6020526040902054610dea5760405162461bcd60e51b815260206004820152601960248201527f596f752068617665206e6f20746f6b656e73207374616b65640000000000000060448201526064016107b2565b6000818152600f60205260409020546001600160a01b03163314610e505760405162461bcd60e51b815260206004820152601960248201527f596f7520646f6e2774206f776e207468697320746f6b656e210000000000000060448201526064016107b2565b6000610e5b336121b2565b336000908152600e6020526040812060030180549293508392909190610e8290849061337c565b9091555060009050805b336000908152600e6020526040902060010154811015610f6357336000908152600e60205260409020600101805485919083908110610edb57634e487b7160e01b600052603260045260246000fd5b906000526020600020906002020160010154148015610f445750336000908152600e60205260408120600101805483908110610f2757634e487b7160e01b600052603260045260246000fd5b60009182526020909120600290910201546001600160a01b031614155b15610f5157809150610f63565b80610f5b8161345c565b915050610e8c565b50336000908152600e60205260408120600101805483908110610f9657634e487b7160e01b600052603260045260246000fd5b6000918252602080832060029290920290910180546001600160a01b0319166001600160a01b039490941693909317909255338152600e90915260408120805491610fe08361340a565b90915550506000838152600f6020908152604080832080546001600160a01b0319908116909155600c90925290912060020180543392168217905561102790309085611fe5565b5050336000908152600e6020526040902042600290910155506001600755565b336000818152600e60205260408120600301549091611065906121b2565b61106f919061337c565b9050600081116110c15760405162461bcd60e51b815260206004820152601c60248201527f596f752068617665206e6f207265776172647320746f20636c61696d0000000060448201526064016107b2565b336000818152600e6020526040812042600282015560030155611106907f00000000000000000000000000000000000000000000000000000000000000009083612206565b50565b61090483838360405180602001604052806000815250611983565b6060600061113160085490565b905060008060005b838110156111945733600c600061115184600161337c565b81526020810191909152604001600020600101546001600160a01b031614156111825761117f60018461337c565b92505b8061118c8161345c565b915050611139565b5060008267ffffffffffffffff8111156111be57634e487b7160e01b600052604160045260246000fd5b60405190808252806020026020018201604052801561121757816020015b6040805160a0810182526000808252602080830182905292820181905260608201819052608082015282526000199092019101816111dc5790505b50905060005b84811015610ab45733600c600061123584600161337c565b81526020810191909152604001600020600101546001600160a01b0316141561130457600061126582600161337c565b6000818152600c6020908152604091829020825160a0810184528154815260018201546001600160a01b039081169382019390935260028201549092169282019290925260038201546060820152600482015460ff1615156080820152855192935090918590879081106112e957634e487b7160e01b600052603260045260246000fd5b60209081029190910101526112ff60018661337c565b945050505b8061130e8161345c565b91505061121d565b600061132160085490565b905090565b6000818152600260205260408120546001600160a01b0316806106a55760405162461bcd60e51b815260206004820152602960248201527f4552433732313a206f776e657220717565727920666f72206e6f6e657869737460448201527f656e7420746f6b656e000000000000000000000000000000000000000000000060648201526084016107b2565b6001600160a01b0381166000908152600e60205260409020546060901561159f576001600160a01b0382166000908152600e602052604081205467ffffffffffffffff81111561141157634e487b7160e01b600052604160045260246000fd5b60405190808252806020026020018201604052801561145657816020015b604080518082019091526000808252602082015281526020019060019003908161142f5790505b5090506000805b6001600160a01b0385166000908152600e6020526040902060010154811015611596576001600160a01b0385166000908152600e602052604081206001018054839081106114bb57634e487b7160e01b600052603260045260246000fd5b60009182526020909120600290910201546001600160a01b031614611584576001600160a01b0385166000908152600e6020526040902060010180548290811061151557634e487b7160e01b600052603260045260246000fd5b60009182526020918290206040805180820190915260029092020180546001600160a01b031682526001015491810191909152835184908490811061156a57634e487b7160e01b600052603260045260246000fd5b602002602001018190525081806115809061345c565b9250505b8061158e8161345c565b91505061145d565b50909392505050565b60408051600080825260208201909252906115dc565b60408051808201909152600080825260208201528152602001906001900390816115b55790505b5092915050565b919050565b60006001600160a01b0382166116665760405162461bcd60e51b815260206004820152602a60248201527f4552433732313a2062616c616e636520717565727920666f7220746865207a6560448201527f726f20616464726573730000000000000000000000000000000000000000000060648201526084016107b2565b506001600160a01b031660009081526003602052604090205490565b6000611692600880546001019055565b600061169d60085490565b90506116a93382612430565b6116b38185612572565b6116bd818461261b565b9392505050565b6060600180546106ba90613421565b6116de3383836127ae565b5050565b600260075414156117355760405162461bcd60e51b815260206004820152601f60248201527f5265656e7472616e637947756172643a207265656e7472616e742063616c6c0060448201526064016107b2565b6002600755336000908152600e60205260409020541561178857600061175a336121b2565b336000908152600e602052604081206003018054929350839290919061178190849061337c565b9091555050505b6000818152600c60205260409020600201546001600160a01b031633146117f15760405162461bcd60e51b815260206004820152601960248201527f596f7520646f6e2774206f776e207468697320746f6b656e210000000000000060448201526064016107b2565b6117fc333083611fe5565b6040805180820182523380825260208083018581526000838152600e8352948520600180820180548083018255908852938720865160029095020180546001600160a01b0319166001600160a01b03909516949094178455915192909101919091559083528054919261186e8361345c565b9091555050506000908152600f602090815260408083208054336001600160a01b03199182168117909255600c845282852060029081018054909216909155908452600e909252909120429101556001600755565b60006118d3600880546001019055565b60006118de60085490565b90506118ea3382612430565b6118f48185612572565b6116bd818461287d565b600b546001600160a01b0316331461197e5760405162461bcd60e51b815260206004820152603060248201527f4f6e6c79206d61726b6574706c616365206f776e65722063616e20757064617460448201527f65206c697374696e672070726963652e0000000000000000000000000000000060648201526084016107b2565b600a55565b61198d3383611ef2565b6119ff5760405162461bcd60e51b815260206004820152603160248201527f4552433732313a207472616e736665722063616c6c6572206973206e6f74206f60448201527f776e6572206e6f7220617070726f76656400000000000000000000000000000060648201526084016107b2565b611a0b84848484612a05565b50505050565b6000818152600c6020526040902060030154348114611a9a576040805162461bcd60e51b81526020600482015260248101919091527f506c65617365207375626d6974207468652061736b696e67207072696365206960448201527f6e206f7264657220746f20636f6d706c6574652074686520707572636861736560648201526084016107b2565b6000828152600c602052604090206002810180546001600160a01b0319908116331790915560048201805460ff1916600190811790915590910180549091169055611ae9600980546001019055565b611af4303384611fe5565b600b54600a546040516001600160a01b039092169181156108fc0291906000818181858888f19350505050158015611b30573d6000803e3d6000fd5b506000828152600c60205260408082206001015490516001600160a01b03909116913480156108fc02929091818181858888f19350505050158015610904573d6000803e3d6000fd5b6000818152600260205260409020546060906001600160a01b0316611c065760405162461bcd60e51b815260206004820152603160248201527f45524337323155524953746f726167653a2055524920717565727920666f722060448201527f6e6f6e6578697374656e7420746f6b656e00000000000000000000000000000060648201526084016107b2565b60008281526006602052604081208054611c1f90613421565b80601f0160208091040260200160405190810160405280929190818152602001828054611c4b90613421565b8015611c985780601f10611c6d57610100808354040283529160200191611c98565b820191906000526020600020905b815481529060010190602001808311611c7b57829003601f168201915b505050505090506000611cb660408051602081019091526000815290565b9050805160001415611cc9575092915050565b815115611cfb578082604051602001611ce3929190613237565b60405160208183030381529060405292505050919050565b611d0484612a8e565b949350505050565b6000828152600c60205260409020600201546001600160a01b03163314611d9b5760405162461bcd60e51b815260206004820152602a60248201527f4f6e6c79206974656d206f776e65722063616e20706572666f726d207468697360448201527f206f7065726174696f6e0000000000000000000000000000000000000000000060648201526084016107b2565b600a543414611df85760405162461bcd60e51b8152602060048201526024808201527f5072696365206d75737420626520657175616c20746f206c697374696e6720706044820152637269636560e01b60648201526084016107b2565b6000828152600c6020526040902060048101805460ff19169055600381018290556001810180546001600160a01b031990811633179091556002909101805490911630179055611e486009612b83565b6116de333084611fe5565b6001600160a01b0381166000908152600e60205260408120600301548190611e7a846121b2565b6116bd919061337c565b600081815260046020526040902080546001600160a01b0319166001600160a01b0384169081179091558190611eb982611326565b6001600160a01b03167f8c5be1e5ebec7d5bd14f71427d1e84f3dd0314c0f7b2291e5b200ac8c7c3b92560405160405180910390a45050565b6000818152600260205260408120546001600160a01b0316611f6b5760405162461bcd60e51b815260206004820152602c60248201527f4552433732313a206f70657261746f7220717565727920666f72206e6f6e657860448201526b34b9ba32b73a103a37b5b2b760a11b60648201526084016107b2565b6000611f7683611326565b9050806001600160a01b0316846001600160a01b03161480611fb15750836001600160a01b0316611fa68461073d565b6001600160a01b0316145b80611d0457506001600160a01b0380821660009081526005602090815260408083209388168352929052205460ff16611d04565b826001600160a01b0316611ff882611326565b6001600160a01b0316146120745760405162461bcd60e51b815260206004820152602560248201527f4552433732313a207472616e736665722066726f6d20696e636f72726563742060448201527f6f776e657200000000000000000000000000000000000000000000000000000060648201526084016107b2565b6001600160a01b0382166120ef5760405162461bcd60e51b8152602060048201526024808201527f4552433732313a207472616e7366657220746f20746865207a65726f2061646460448201527f726573730000000000000000000000000000000000000000000000000000000060648201526084016107b2565b6120fa600082611e84565b6001600160a01b03831660009081526003602052604081208054600192906121239084906133c7565b90915550506001600160a01b038216600090815260036020526040812080546001929061215190849061337c565b909155505060008181526002602052604080822080546001600160a01b0319166001600160a01b0386811691821790925591518493918716917fddf252ad1be2c89b69c2b068fc378daa952ba7f163c4a11628f55a4df523b3ef91a4505050565b600d546001600160a01b0382166000908152600e6020526040812080546002909101549192610e10929091906121e890426133c7565b6121f291906133a8565b6121fc91906133a8565b6106a59190613394565b600b546001600160a01b031633146122605760405162461bcd60e51b815260206004820152601d60248201527f4f6e6c79206f776e65722063616e2077697468647261772066756e647300000060448201526064016107b2565b6040517f70a082310000000000000000000000000000000000000000000000000000000081523060048201526000906001600160a01b038516906370a082319060240160206040518083038186803b1580156122bb57600080fd5b505afa1580156122cf573d6000803e3d6000fd5b505050506040513d601f19601f820116820180604052508101906122f391906131d2565b9050808211156123455760405162461bcd60e51b815260206004820152600e60248201527f62616c616e6365206973206c6f7700000000000000000000000000000000000060448201526064016107b2565b6040517fa9059cbb0000000000000000000000000000000000000000000000000000000081526001600160a01b0384811660048301526024820184905285169063a9059cbb90604401602060405180830381600087803b1580156123a857600080fd5b505af11580156123bc573d6000803e3d6000fd5b505050506040513d601f19601f820116820180604052508101906123e09190613110565b50604080513381526001600160a01b03851660208201529081018390527ffda3a3e0e1479b43cb1c701f7576187f4c4ad80768d627387e00184302f7d88e9060600160405180910390a150505050565b6001600160a01b0382166124865760405162461bcd60e51b815260206004820181905260248201527f4552433732313a206d696e7420746f20746865207a65726f206164647265737360448201526064016107b2565b6000818152600260205260409020546001600160a01b0316156124eb5760405162461bcd60e51b815260206004820152601c60248201527f4552433732313a20746f6b656e20616c7265616479206d696e7465640000000060448201526064016107b2565b6001600160a01b038216600090815260036020526040812080546001929061251490849061337c565b909155505060008181526002602052604080822080546001600160a01b0319166001600160a01b03861690811790915590518392907fddf252ad1be2c89b69c2b068fc378daa952ba7f163c4a11628f55a4df523b3ef908290a45050565b6000828152600260205260409020546001600160a01b03166125fc5760405162461bcd60e51b815260206004820152602e60248201527f45524337323155524953746f726167653a2055524920736574206f66206e6f6e60448201527f6578697374656e7420746f6b656e00000000000000000000000000000000000060648201526084016107b2565b6000828152600660209081526040909120825161090492840190612e8b565b6000811161266b5760405162461bcd60e51b815260206004820152601c60248201527f5072696365206d757374206265206174206c656173742031207765690000000060448201526064016107b2565b600a5434146126c85760405162461bcd60e51b8152602060048201526024808201527f5072696365206d75737420626520657175616c20746f206c697374696e6720706044820152637269636560e01b60648201526084016107b2565b6040805160a08101825283815233602080830182815230848601818152606086018881526000608088018181528b8252600c909652979097209551865591516001860180546001600160a01b03199081166001600160a01b0393841617909155925160028701805490941691161790915593516003840155516004909201805460ff1916921515929092179091556127609184611fe5565b604080513381523060208201529081018290526000606082015282907fb640004f1d14576d0c209e240cad0410e0d8c0c33a09375861fbadae2588a98d906080015b60405180910390a25050565b816001600160a01b0316836001600160a01b031614156128105760405162461bcd60e51b815260206004820152601960248201527f4552433732313a20617070726f766520746f2063616c6c65720000000000000060448201526064016107b2565b6001600160a01b03838116600081815260056020908152604080832094871680845294825291829020805460ff191686151590811790915591519182527f17307eab39ab6107e8899845ad3d59bd9653f200f220920489ca2b5937696c31910160405180910390a3505050565b600081116128cd5760405162461bcd60e51b815260206004820152601c60248201527f5072696365206d757374206265206174206c656173742031207765690000000060448201526064016107b2565b6040805160a08101825283815233602080830182815230848601818152606086018881526000608088018181528b8252600c909652979097209551865591516001860180546001600160a01b03199081166001600160a01b0393841617909155925160028701805490941691161790915593516003840155516004909201805460ff1916921515929092179091556129659184611fe5565b6000828152600c602052604090206002810180546001600160a01b0319908116331790915560048201805460ff19166001908117909155909101805490911690556129b4600980546001019055565b6129bf303384611fe5565b604080513081523360208201529081018290526001606082015282907fd6cae11418ba2a1ec659992393f3db3926b5d6391aba2e8e6032a490247a0767906080016127a2565b612a10848484611fe5565b612a1c84848484612bda565b611a0b5760405162461bcd60e51b815260206004820152603260248201527f4552433732313a207472616e7366657220746f206e6f6e20455243373231526560448201527f63656976657220696d706c656d656e746572000000000000000000000000000060648201526084016107b2565b6000818152600260205260409020546060906001600160a01b0316612b1b5760405162461bcd60e51b815260206004820152602f60248201527f4552433732314d657461646174613a2055524920717565727920666f72206e6f60448201527f6e6578697374656e7420746f6b656e000000000000000000000000000000000060648201526084016107b2565b6000612b3260408051602081019091526000815290565b90506000815111612b5257604051806020016040528060008152506116bd565b80612b5c84612d3d565b604051602001612b6d929190613237565b6040516020818303038152906040529392505050565b805480612bd25760405162461bcd60e51b815260206004820152601b60248201527f436f756e7465723a2064656372656d656e74206f766572666c6f77000000000060448201526064016107b2565b600019019055565b60006001600160a01b0384163b15612d3257604051630a85bd0160e11b81526001600160a01b0385169063150b7a0290612c1e903390899088908890600401613266565b602060405180830381600087803b158015612c3857600080fd5b505af1925050508015612c68575060408051601f3d908101601f19168201909252612c6591810190613148565b60015b612d18573d808015612c96576040519150601f19603f3d011682016040523d82523d6000602084013e612c9b565b606091505b508051612d105760405162461bcd60e51b815260206004820152603260248201527f4552433732313a207472616e7366657220746f206e6f6e20455243373231526560448201527f63656976657220696d706c656d656e746572000000000000000000000000000060648201526084016107b2565b805181602001fd5b6001600160e01b031916630a85bd0160e11b149050611d04565b506001949350505050565b606081612d7d57505060408051808201909152600181527f3000000000000000000000000000000000000000000000000000000000000000602082015290565b8160005b8115612da75780612d918161345c565b9150612da09050600a83613394565b9150612d81565b60008167ffffffffffffffff811115612dd057634e487b7160e01b600052604160045260246000fd5b6040519080825280601f01601f191660200182016040528015612dfa576020820181803683370190505b5090505b8415611d0457612e0f6001836133c7565b9150612e1c600a86613477565b612e2790603061337c565b60f81b818381518110612e4a57634e487b7160e01b600052603260045260246000fd5b60200101907effffffffffffffffffffffffffffffffffffffffffffffffffffffffffffff1916908160001a905350612e84600a86613394565b9450612dfe565b828054612e9790613421565b90600052602060002090601f016020900481019282612eb95760008555612eff565b82601f10612ed257805160ff1916838001178555612eff565b82800160010185558215612eff579182015b82811115612eff578251825591602001919060010190612ee4565b50612f0b929150612f0f565b5090565b5b80821115612f0b5760008155600101612f10565b600067ffffffffffffffff80841115612f3f57612f3f6134b7565b604051601f8501601f19908116603f01168101908282118183101715612f6757612f676134b7565b81604052809350858152868686011115612f8057600080fd5b858560208301376000602087830101525050509392505050565b80356001600160a01b03811681146115e357600080fd5b600060208284031215612fc2578081fd5b6116bd82612f9a565b60008060408385031215612fdd578081fd5b612fe683612f9a565b9150612ff460208401612f9a565b90509250929050565b600080600060608486031215613011578081fd5b61301a84612f9a565b925061302860208501612f9a565b9150604084013590509250925092565b6000806000806080858703121561304d578081fd5b61305685612f9a565b935061306460208601612f9a565b925060408501359150606085013567ffffffffffffffff811115613086578182fd5b8501601f81018713613096578182fd5b6130a587823560208401612f24565b91505092959194509250565b600080604083850312156130c3578182fd5b6130cc83612f9a565b915060208301356130dc816134cd565b809150509250929050565b600080604083850312156130f9578182fd5b61310283612f9a565b946020939093013593505050565b600060208284031215613121578081fd5b81516116bd816134cd565b60006020828403121561313d578081fd5b81356116bd816134db565b600060208284031215613159578081fd5b81516116bd816134db565b60008060408385031215613176578182fd5b823567ffffffffffffffff81111561318c578283fd5b8301601f8101851361319c578283fd5b6131ab85823560208401612f24565b95602094909401359450505050565b6000602082840312156131cb578081fd5b5035919050565b6000602082840312156131e3578081fd5b5051919050565b600080604083850312156131fc578182fd5b50508035926020909101359150565b600081518084526132238160208601602086016133de565b601f01601f19169290920160200192915050565b600083516132498184602088016133de565b83519083019061325d8183602088016133de565b01949350505050565b60006001600160a01b03808716835280861660208401525083604083015260806060830152613298608083018461320b565b9695505050505050565b602080825282518282018190526000919060409081850190868401855b8281101561331157815180518552868101516001600160a01b03908116888701528682015116868601526060808201519086015260809081015115159085015260a090930192908501906001016132bf565b5091979650505050505050565b602080825282518282018190526000919060409081850190868401855b8281101561331157815180516001600160a01b0316855286015186850152928401929085019060010161333b565b6020815260006116bd602083018461320b565b6000821982111561338f5761338f61348b565b500190565b6000826133a3576133a36134a1565b500490565b60008160001904831182151516156133c2576133c261348b565b500290565b6000828210156133d9576133d961348b565b500390565b60005b838110156133f95781810151838201526020016133e1565b83811115611a0b5750506000910152565b6000816134195761341961348b565b506000190190565b600181811c9082168061343557607f821691505b6020821081141561345657634e487b7160e01b600052602260045260246000fd5b50919050565b60006000198214156134705761347061348b565b5060010190565b600082613486576134866134a1565b500690565b634e487b7160e01b600052601160045260246000fd5b634e487b7160e01b600052601260045260246000fd5b634e487b7160e01b600052604160045260246000fd5b801515811461110657600080fd5b6001600160e01b03198116811461110657600080fdfea2646970667358221220c7306c0efe731476c22f93f2b4858f7522eaf031f8315bd4e5f39b7d41a698fb64736f6c63430008040033",
  "linkReferences": {},
  "deployedLinkReferences": {}
}